:100000000206BE7AB479FA78FAD8FED9FADAF6227C
:100010007A5A79FA78FAD8FED9FADAF622758FA4E4
:10002000758E807594C07593C07592827591B0225B
:10003000758FFF758EFF7594FF7593FF7592B07580
:100040009182220206D0758FA4758E807594C0753A
:1000500093C07592827591B030FBE812001030FBAE
:10006000E2758F80758EC07594C07593827592B05D
:100070007591B030FBCD12001030FBC7758FC07585
:100080008EC07594827593B07592B075918230FB75
:10009000B212001030FBAC758FC0758E827594B0B3
:1000A0007593B07592827591A430FB751200103073
:1000B000FB6F758F82758EB07594B0759382759253
:1000C000A475918030FB5A12001030FB54758FB02C
:1000D000758EB07594827593A47592807591C030B9
:1000E000FB3F12001030FB39758FB0758E8275940E
:1000F000A47593807592C07591C030FB24120010D6
:1001000030FB1E758F82758EA47594807593C075B3
:1001100092C075918230FB0912001030FB0302007F
:10012000460206D0758FA4758E807594C07593C0F5
:100130007592827591B030FBE812000330FBE275D6
:100140008F80758EC07594C07593827592B07591CD
:10015000B030FBCD12000330FBC7758FC0758EC069
:100160007594827593B07592B075918230FBB2121E
:10017000000330FBAC758FC0758E827594B075939B
:10018000B07592827591A430FB9712000330FB91F9
:10019000758F82758EB07594B07593827592A475C3
:1001A000918030FB5A12000330FB54758FB0758E6E
:1001B000B07594827593A47592807591C030FB3FA1
:1001C00012000330FB39758FB0758E827594A4755B
:1001D00093807592C07591C030FB2412000330FBF0
:1001E0001E758F82758EA47594807593C07592C0AC
:1001F00075918230FB0912000330FB0302012402D7
:1002000006D0758FA4758E807594C07593C0759255
:10021000827591B030FBE812001030FBE2758F82DE
:10022000758EA47594807593C07592C07591823057
:10023000FBCD12001030FBC7758FB0758E827594A0
:10024000A47593807592C07591C030FBB2120010F6
:1002500030FBAC758FB0758EB07594827593A475B4
:1002600092807591C030FB9712001030FB91758F12
:1002700082758EB07594B07593827592A4759180D5
:1002800030FB5A12001030FB54758FC0758E82758A
:1002900094B07593B07592827591A430FB3F1200B3
:1002A0001030FB39758FC0758EC07594827593B010
:1002B0007592B075918230FB2412001030FB1E75D0
:1002C0008F80758EC07594C07593827592B075914C
:1002D000B030FB0912001030FB030202020206D00C
:1002E00030FBFA758FA4758E807594C07593C075B8
:1002F00092827591B030FBE512000330FBDF758F01
:1003000082758EA47594807593C07592C075918224
:1003100030FBCA12000330FBC4758FB0758E827536
:1003200094A47593807592C07591C030FBAF120094
:100330000330FBA9758FB0758EB07594827593A448
:100340007592807591C030FB9412000330FB8E755E
:100350008F82758EB07594B07593827592A47591E5
:100360008030FB5712000330FB51758FC0758E82B1
:100370007594B07593B07592827591A430FB3C1260
:10038000000330FB36758FC0758EC07594827593EF
:10039000B07592B075918230FB2112000330FB1BC7
:1003A000758F80758EC07594C07593827592B07587
:1003B00091B030FB061200030202E00206D030FBCF
:1003C000FA758FC0758EC07594827593B07592B0B2
:1003D00075918230FBE512001030FBDF758FFF75E1
:1003E0008EFF7594FF7593FF7592FF7591FF30FB3B
:1003F000CA12001030FBC40203BE30FB39758FC037
:10040000758EC07594827593B07592B07591823077
:10041000FB2412000330FB1E758FFF758EFF759451
:10042000FF7593FF7592FF7591FF30FB0912000372
:1004300030FB030203FA0206D030FBFA758FFF751A
:100440008EFF7594FF7593FF7592FF7591FF30FBDA
:10045000E512001030FBDF758FA4758EFF7594FFD9
:100460007593FF7592FF7591FF30FBCA1200103033
:10047000FBC4758FA4758E807594FF7593FF75927C
:10048000FF7591FF30FBAF12001030FB6C758FA42D
:10049000758E807594C07593FF7592FF7591FF30CE
:1004A000FB5712001030FB51758FA4758E80759428
:1004B000C07593C07592FF7591FF30FB3C12001020
:1004C00030FB36758FA4758E807594C07593C0759A
:1004D00092827591FF30FB2112001030FB1B758F4B
:1004E000A4758E807594C07593C07592827591B015
:1004F00030FB061200100204390206D030FBFA75F8
:100500008FFF758EFF7594FF7593FF7592FF759140
:10051000FF30FBE512000330FBDF758FA4758EFF03
:100520007594FF7593FF7592FF7591FF30FBCA12AA
:10053000000330FBC4758FA4758E807594FF75938E
:10054000FF7592FF7591FF30FBAF12000330FBA9DE
:10055000758FA4758E807594C07593FF7592FF7525
:1005600091FF30FB5712000330FB51758FA4758E3D
:10057000807594C07593C07592FF7591FF30FB3CF8
:1005800012000330FB36758FA4758E807594C0758C
:1005900093C07592827591FF30FB2112000330FBEE
:1005A0001B758FA4758E807594C07593C0759282EB
:1005B0007591B030FB061200030204FC0206D00263
:1005C00006D030FBFA758FFF758E8975948675930A
:1005D000C77592C77591C030FBE512000330FBDF91
:1005E000758FA4758E807594C07593C07592827551
:1005F00091B030FBCA12000330FBC4758FC6758EF4
:100600008C7594AB7593B07592F97591A430FBAF6E
:100610001200030205C230FB51758FFF758E89757C
:1006200094867593C77592C77591C030FB3C1200D4
:100630001030FB36758FA4758E807594C07593C08D
:100640007592827591B030FB2112001030FB1B7542
:100650008FC6758E8C7594AB7593B07592F9759144
:10066000A430FB061200100206160206D030FBFA78
:10067000758FFF758EFF7594FF7593FF7592A47546
:10068000918030FBE512001030FBDF7592C0759150
:10069000C030FBD612001030FBD07592827591B03D
:1006A00030FBC712001030FBC17592B075918230DB
:1006B000FBB812001030FBB202066D0206BE758157
:1006C0007F75E800759500E5E8540F790020FBEB95
:1006D000E5E8540FB4000512001D80EBB4010512CB
:1006E000003080E3B4020512012480DBB40305125C
:1006F00002E080D3B404051203FA80CBB4050512DE
:1007000004FC80C3B406051205C280BBB407051201
:10071000066D80B3B4080512001D80ABB409051244
:10072000003080A3B40A05120046809BB40B05126A
:1007300002028093B40C051203BE808BB40D051227
:1007400004398083B40E061206160206C7B40F06DB
:0B07500012066D0206C7B2E80206C7E1
:00000001FF
